{
  "contractName": "StakingContract",
  "abi": [
    {
      "inputs": [
        {
          "internalType": "address",
          "name": "_stakingTokenAddress",
          "type": "address"
        }
      ],
      "stateMutability": "nonpayable",
      "type": "constructor"
    },
    {
      "anonymous": false,
      "inputs": [
        {
          "components": [
            {
              "internalType": "uint256",
              "name": "poolId",
              "type": "uint256"
            },
            {
              "internalType": "uint256",
              "name": "lastClaimedRewards",
              "type": "uint256"
            },
            {
              "internalType": "uint256",
              "name": "timeDeposited",
              "type": "uint256"
            },
            {
              "internalType": "uint256",
              "name": "stakingBalances",
              "type": "uint256"
            },
            {
              "internalType": "uint256",
              "name": "rewardBalances",
              "type": "uint256"
            }
          ],
          "indexed": false,
          "internalType": "struct StakingContract.UserInformation",
          "name": "userInformation",
          "type": "tuple"
        }
      ],
      "name": "CheckUserInformation",
      "type": "event"
    },
    {
      "anonymous": false,
      "inputs": [
        {
          "indexed": false,
          "internalType": "bool",
          "name": "success",
          "type": "bool"
        },
        {
          "indexed": false,
          "internalType": "bool",
          "name": "successRewards",
          "type": "bool"
        }
      ],
      "name": "ClaimStakedToken",
      "type": "event"
    },
    {
      "anonymous": false,
      "inputs": [
        {
          "components": [
            {
              "internalType": "uint256",
              "name": "poolId",
              "type": "uint256"
            },
            {
              "internalType": "uint256",
              "name": "apr",
              "type": "uint256"
            },
            {
              "internalType": "uint256",
              "name": "minimumStakeAmount",
              "type": "uint256"
            },
            {
              "internalType": "uint256",
              "name": "maxSize",
              "type": "uint256"
            },
            {
              "internalType": "uint256",
              "name": "timeLock",
              "type": "uint256"
            },
            {
              "internalType": "uint256",
              "name": "totalStakedAmount",
              "type": "uint256"
            },
            {
              "internalType": "uint256",
              "name": "totalStakers",
              "type": "uint256"
            }
          ],
          "indexed": false,
          "internalType": "struct StakingContract.Pool",
          "name": "pool",
          "type": "tuple"
        }
      ],
      "name": "PoolInformation",
      "type": "event"
    },
    {
      "anonymous": false,
      "inputs": [
        {
          "indexed": false,
          "internalType": "bool",
          "name": "success",
          "type": "bool"
        },
        {
          "components": [
            {
              "internalType": "uint256",
              "name": "poolId",
              "type": "uint256"
            },
            {
              "internalType": "uint256",
              "name": "lastClaimedRewards",
              "type": "uint256"
            },
            {
              "internalType": "uint256",
              "name": "timeDeposited",
              "type": "uint256"
            },
            {
              "internalType": "uint256",
              "name": "stakingBalances",
              "type": "uint256"
            },
            {
              "internalType": "uint256",
              "name": "rewardBalances",
              "type": "uint256"
            }
          ],
          "indexed": false,
          "internalType": "struct StakingContract.UserInformation",
          "name": "userInformation",
          "type": "tuple"
        }
      ],
      "name": "UpdateUserInformation",
      "type": "event"
    },
    {
      "inputs": [
        {
          "internalType": "uint256",
          "name": "",
          "type": "uint256"
        }
      ],
      "name": "pools",
      "outputs": [
        {
          "internalType": "uint256",
          "name": "poolId",
          "type": "uint256"
        },
        {
          "internalType": "uint256",
          "name": "apr",
          "type": "uint256"
        },
        {
          "internalType": "uint256",
          "name": "minimumStakeAmount",
          "type": "uint256"
        },
        {
          "internalType": "uint256",
          "name": "maxSize",
          "type": "uint256"
        },
        {
          "internalType": "uint256",
          "name": "timeLock",
          "type": "uint256"
        },
        {
          "internalType": "uint256",
          "name": "totalStakedAmount",
          "type": "uint256"
        },
        {
          "internalType": "uint256",
          "name": "totalStakers",
          "type": "uint256"
        }
      ],
      "stateMutability": "view",
      "type": "function",
      "constant": true
    },
    {
      "inputs": [],
      "name": "stakingTokenAddress",
      "outputs": [
        {
          "internalType": "address",
          "name": "",
          "type": "address"
        }
      ],
      "stateMutability": "view",
      "type": "function",
      "constant": true
    },
    {
      "inputs": [
        {
          "internalType": "address",
          "name": "",
          "type": "address"
        },
        {
          "internalType": "uint256",
          "name": "",
          "type": "uint256"
        }
      ],
      "name": "userInformations",
      "outputs": [
        {
          "internalType": "uint256",
          "name": "poolId",
          "type": "uint256"
        },
        {
          "internalType": "uint256",
          "name": "lastClaimedRewards",
          "type": "uint256"
        },
        {
          "internalType": "uint256",
          "name": "timeDeposited",
          "type": "uint256"
        },
        {
          "internalType": "uint256",
          "name": "stakingBalances",
          "type": "uint256"
        },
        {
          "internalType": "uint256",
          "name": "rewardBalances",
          "type": "uint256"
        }
      ],
      "stateMutability": "view",
      "type": "function",
      "constant": true
    },
    {
      "inputs": [
        {
          "internalType": "uint256",
          "name": "_amount",
          "type": "uint256"
        },
        {
          "internalType": "uint256",
          "name": "_poolId",
          "type": "uint256"
        }
      ],
      "name": "stakeTokens",
      "outputs": [],
      "stateMutability": "nonpayable",
      "type": "function"
    },
    {
      "inputs": [
        {
          "internalType": "uint256",
          "name": "_amount",
          "type": "uint256"
        },
        {
          "internalType": "uint256",
          "name": "_poolId",
          "type": "uint256"
        }
      ],
      "name": "claimRewards",
      "outputs": [],
      "stateMutability": "nonpayable",
      "type": "function"
    },
    {
      "inputs": [
        {
          "internalType": "uint256",
          "name": "_poolId",
          "type": "uint256"
        }
      ],
      "name": "stakeRewards",
      "outputs": [],
      "stateMutability": "nonpayable",
      "type": "function"
    },
    {
      "inputs": [
        {
          "internalType": "uint256",
          "name": "_poolId",
          "type": "uint256"
        }
      ],
      "name": "claimStakedToken",
      "outputs": [],
      "stateMutability": "nonpayable",
      "type": "function"
    },
    {
      "inputs": [
        {
          "internalType": "uint256",
          "name": "_poolId",
          "type": "uint256"
        }
      ],
      "name": "rewardsCalculator",
      "outputs": [
        {
          "internalType": "uint256",
          "name": "",
          "type": "uint256"
        }
      ],
      "stateMutability": "view",
      "type": "function",
      "constant": true
    },
    {
      "inputs": [
        {
          "internalType": "uint256",
          "name": "_poolId",
          "type": "uint256"
        }
      ],
      "name": "unclaimedAmount",
      "outputs": [
        {
          "internalType": "uint256",
          "name": "",
          "type": "uint256"
        }
      ],
      "stateMutability": "view",
      "type": "function",
      "constant": true
    },
    {
      "inputs": [
        {
          "internalType": "uint256",
          "name": "_apr",
          "type": "uint256"
        },
        {
          "internalType": "uint256",
          "name": "_poolId",
          "type": "uint256"
        }
      ],
      "name": "setAPR",
      "outputs": [],
      "stateMutability": "nonpayable",
      "type": "function"
    },
    {
      "inputs": [
        {
          "internalType": "uint256",
          "name": "_minimumStakeAmount",
          "type": "uint256"
        },
        {
          "internalType": "uint256",
          "name": "_poolId",
          "type": "uint256"
        }
      ],
      "name": "setMinimumStakeAmount",
      "outputs": [],
      "stateMutability": "nonpayable",
      "type": "function"
    },
    {
      "inputs": [
        {
          "internalType": "uint256",
          "name": "_maxSize",
          "type": "uint256"
        },
        {
          "internalType": "uint256",
          "name": "_poolId",
          "type": "uint256"
        }
      ],
      "name": "setMaxSize",
      "outputs": [],
      "stateMutability": "nonpayable",
      "type": "function"
    },
    {
      "inputs": [
        {
          "internalType": "uint256",
          "name": "_timeLock",
          "type": "uint256"
        },
        {
          "internalType": "uint256",
          "name": "_poolId",
          "type": "uint256"
        }
      ],
      "name": "setTimeLock",
      "outputs": [],
      "stateMutability": "nonpayable",
      "type": "function"
    }
  ],
  "bytecode": "0x60806040526301e1338060035562093a806004553480156200002057600080fd5b5060405162002ce638038062002ce68339818101604052810190620000469190620002b0565b336000806101000a81548173ffffffffffffffffffffffffffffffffffffffff021916908373ffffffffffffffffffffffffffffffffffffffff16021790555080600260006101000a81548173ffffffffffffffffffffffffffffffffffffffff021916908373ffffffffffffffffffffffffffffffffffffffff16021790555080600160006101000a81548173ffffffffffffffffffffffffffffffffffffffff021916908373ffffffffffffffffffffffffffffffffffffffff1602179055506040518060e0016040528060018152602001600581526020016064815260200162989680815260200162093a8081526020016000815260200160008152506005600060018152602001908152602001600020600082015181600001556020820151816001015560408201518160020155606082015181600301556080820151816004015560a0820151816005015560c082015181600601559050506040518060e001604052806002815260200160048152602001605081526020016301312d0081526020016203f48081526020016000815260200160008152506005600060028152602001908152602001600020600082015181600001556020820151816001015560408201518160020155606082015181600301556080820151816004015560a0820151816005015560c0820151816006015590505050620002e2565b600080fd5b600073ffffffffffffffffffffffffffffffffffffffff82169050919050565b600062000278826200024b565b9050919050565b6200028a816200026b565b81146200029657600080fd5b50565b600081519050620002aa816200027f565b92915050565b600060208284031215620002c957620002c862000246565b5b6000620002d98482850162000299565b91505092915050565b6129f480620002f26000396000f3fe608060405234801561001057600080fd5b50600436106100cf5760003560e01c80635298b8691161008c5780639b4b50a3116100665780639b4b50a3146101e6578063a230561b1461021a578063ac4afa3814610236578063e2f1fe541461026c576100cf565b80635298b86914610190578063594dd432146101ae5780635eaedc46146101ca576100cf565b806310de9179146100d4578063217af33f146101045780633143d97c146101205780633b7b61881461013c57806342b5aa9b146101585780634477c97414610174575b600080fd5b6100ee60048036038101906100e99190611e8b565b61029c565b6040516100fb9190611ec7565b60405180910390f35b61011e60048036038101906101199190611e8b565b610358565b005b61013a60048036038101906101359190611ee2565b6108ef565b005b61015660048036038101906101519190611ee2565b610a35565b005b610172600480360381019061016d9190611ee2565b610f80565b005b61018e60048036038101906101899190611e8b565b6110c6565b005b610198611450565b6040516101a59190611f63565b60405180910390f35b6101c860048036038101906101c39190611ee2565b611476565b005b6101e460048036038101906101df9190611ee2565b611875565b005b61020060048036038101906101fb9190611faa565b6119bb565b604051610211959493929190611fea565b60405180910390f35b610234600480360381019061022f9190611ee2565b611a0e565b005b610250600480360381019061024b9190611e8b565b611b54565b604051610263979695949392919061203d565b60405180910390f35b61028660048036038101906102819190611e8b565b611b96565b6040516102939190611ec7565b60405180910390f35b60008160018114806102ae5750600281145b6102ed576040517f08c379a00000000000000000000000000000000000000000000000000000000081526004016102e49061212f565b60405180910390fd5b600660003373ffffffffffffffffffffffffffffffffffffffff1673ffffffffffffffffffffffffffffffffffffffff168152602001908152602001600020838154811061033e5761033d61214f565b5b906000526020600020906005020160030154915050919050565b8060018114806103685750600281145b6103a7576040517f08c379a000000000000000000000000000000000000000000000000000000000815260040161039e9061212f565b60405180910390fd5b816005600082815260200190815260200160002060040154600660003373ffffffffffffffffffffffffffffffffffffffff1673ffffffffffffffffffffffffffffffffffffffff16815260200190815260200160002082815481106104105761040f61214f565b5b90600052602060002090600502016002015461042c91906121ad565b421161046d576040517f08c379a000000000000000000000000000000000000000000000000000000000815260040161046490612275565b60405180910390fd5b61047683611d89565b6000600260009054906101000a900473ffffffffffffffffffffffffffffffffffffffff1673ffffffffffffffffffffffffffffffffffffffff1663a9059cbb33600660003373ffffffffffffffffffffffffffffffffffffffff1673ffffffffffffffffffffffffffffffffffffffff16815260200190815260200160002087815481106105085761050761214f565b5b9060005260206000209060050201600301546040518363ffffffff1660e01b8152600401610537929190612295565b6020604051808303816000875af1158015610556573d6000803e3d6000fd5b505050506040513d601f19601f8201168201806040525081019061057a91906122f6565b9050801561067a57600660003373ffffffffffffffffffffffffffffffffffffffff1673ffffffffffffffffffffffffffffffffffffffff16815260200190815260200160002084815481106105d3576105d261214f565b5b90600052602060002090600502016003015460056000868152602001908152602001600020600501600082825461060a9190612323565b925050819055506000600660003373ffffffffffffffffffffffffffffffffffffffff1673ffffffffffffffffffffffffffffffffffffffff16815260200190815260200160002085815481106106645761066361214f565b5b9060005260206000209060050201600301819055505b60003073ffffffffffffffffffffffffffffffffffffffff1663e2f1fe54866040518263ffffffff1660e01b81526004016106b59190611ec7565b602060405180830381865afa1580156106d2573d6000803e3d6000fd5b505050506040513d601f19601f820116820180604052508101906106f6919061236c565b90506000600260009054906101000a900473ffffffffffffffffffffffffffffffffffffffff1673ffffffffffffffffffffffffffffffffffffffff1663a9059cbb33846040518363ffffffff1660e01b8152600401610757929190612295565b6020604051808303816000875af1158015610776573d6000803e3d6000fd5b505050506040513d601f19601f8201168201806040525081019061079a91906122f6565b90508015610872576000600660003373ffffffffffffffffffffffffffffffffffffffff1673ffffffffffffffffffffffffffffffffffffffff16815260200190815260200160002087815481106107f5576107f461214f565b5b90600052602060002090600502016004018190555042600660003373ffffffffffffffffffffffffffffffffffffffff1673ffffffffffffffffffffffffffffffffffffffff168152602001908152602001600020878154811061085c5761085b61214f565b5b9060005260206000209060050201600101819055505b80801561087c5750825b156108ae576005600087815260200190815260200160002060060160008154809291906108a890612399565b91905055505b7fd8da44d1fa101736d58626e7bd971bec84d5bb36d7464d3a3fcc20e78edd7e4783826040516108df9291906123d1565b60405180910390a1505050505050565b60008054906101000a900473ffffffffffffffffffffffffffffffffffffffff1673ffffffffffffffffffffffffffffffffffffffff163373ffffffffffffffffffffffffffffffffffffffff161461097d576040517f08c379a00000000000000000000000000000000000000000000000000000000081526004016109749061246c565b60405180910390fd5b80600181148061098d5750600281145b6109cc576040517f08c379a00000000000000000000000000000000000000000000000000000000081526004016109c39061212f565b60405180910390fd5b8260056000848152602001908152602001600020600401819055507f709833cf22c1eba2035781c81a921f4379ee0b5f54a0f0c16adbace91611d04060056000848152602001908152602001600020604051610a2891906125a9565b60405180910390a1505050565b806001811480610a455750600281145b610a84576040517f08c379a0000000000000000000000000000000000000000000000000000000008152600401610a7b9061212f565b60405180910390fd5b60056000838152602001908152602001600020600201548311610adc576040517f08c379a0000000000000000000000000000000000000000000000000000000008152600401610ad390612636565b60405180910390fd5b826005600084815260200190815260200160002060050154610afe91906121ad565b600560008481526020019081526020016000206003015411610b55576040517f08c379a0000000000000000000000000000000000000000000000000000000008152600401610b4c906126ee565b60405180910390fd5b6000600260009054906101000a900473ffffffffffffffffffffffffffffffffffffffff1673ffffffffffffffffffffffffffffffffffffffff166323b872dd3330876040518463ffffffff1660e01b8152600401610bb69392919061270e565b6020604051808303816000875af1158015610bd5573d6000803e3d6000fd5b505050506040513d601f19601f82011682018060405250810190610bf991906122f6565b90508015610ee3576000600660003373ffffffffffffffffffffffffffffffffffffffff1673ffffffffffffffffffffffffffffffffffffffff1681526020019081526020016000208481548110610c5457610c5361214f565b5b906000526020600020906005020160030154148015610cd557506000600660003373ffffffffffffffffffffffffffffffffffffffff1673ffffffffffffffffffffffffffffffffffffffff1681526020019081526020016000208481548110610cc157610cc061214f565b5b906000526020600020906005020160040154145b15610dd557600560008481526020019081526020016000206006016000815480929190610d0190612745565b919050555082600660003373ffffffffffffffffffffffffffffffffffffffff1673ffffffffffffffffffffffffffffffffffffffff1681526020019081526020016000208481548110610d5857610d5761214f565b5b90600052602060002090600502016000018190555042600660003373ffffffffffffffffffffffffffffffffffffffff1673ffffffffffffffffffffffffffffffffffffffff1681526020019081526020016000208481548110610dbf57610dbe61214f565b5b9060005260206000209060050201600101819055505b83600560008581526020019081526020016000206005016000828254610dfb91906121ad565b9250508190555083600660003373ffffffffffffffffffffffffffffffffffffffff1673ffffffffffffffffffffffffffffffffffffffff1681526020019081526020016000208481548110610e5457610e5361214f565b5b90600052602060002090600502016003016000828254610e7491906121ad565b9250508190555042600660003373ffffffffffffffffffffffffffffffffffffffff1673ffffffffffffffffffffffffffffffffffffffff1681526020019081526020016000208481548110610ecd57610ecc61214f565b5b9060005260206000209060050201600201819055505b7ff81e535c950855edcc77e9d85fb2350a26964536b52d203e11970af5a7b713a281600660003373ffffffffffffffffffffffffffffffffffffffff1673ffffffffffffffffffffffffffffffffffffffff1681526020019081526020016000208581548110610f5657610f5561214f565b5b9060005260206000209060050201604051610f7292919061282e565b60405180910390a150505050565b60008054906101000a900473ffffffffffffffffffffffffffffffffffffffff1673ffffffffffffffffffffffffffffffffffffffff163373ffffffffffffffffffffffffffffffffffffffff161461100e576040517f08c379a00000000000000000000000000000000000000000000000000000000081526004016110059061246c565b60405180910390fd5b80600181148061101e5750600281145b61105d576040517f08c379a00000000000000000000000000000000000000000000000000000000081526004016110549061212f565b60405180910390fd5b8260056000848152602001908152602001600020600301819055507f709833cf22c1eba2035781c81a921f4379ee0b5f54a0f0c16adbace91611d040600560008481526020019081526020016000206040516110b991906125a9565b60405180910390a1505050565b8060018114806110d65750600281145b611115576040517f08c379a000000000000000000000000000000000000000000000000000000000815260040161110c9061212f565b60405180910390fd5b60003073ffffffffffffffffffffffffffffffffffffffff1663e2f1fe54846040518263ffffffff1660e01b81526004016111509190611ec7565b602060405180830381865afa15801561116d573d6000803e3d6000fd5b505050506040513d601f19601f82011682018060405250810190611191919061236c565b905080600660003373ffffffffffffffffffffffffffffffffffffffff1673ffffffffffffffffffffffffffffffffffffffff16815260200190815260200160002084815481106111e5576111e461214f565b5b9060005260206000209060050201600401600082825461120591906121ad565b92505081905550600660003373ffffffffffffffffffffffffffffffffffffffff1673ffffffffffffffffffffffffffffffffffffffff168152602001908152602001600020838154811061125d5761125c61214f565b5b906000526020600020906005020160040154600660003373ffffffffffffffffffffffffffffffffffffffff1673ffffffffffffffffffffffffffffffffffffffff16815260200190815260200160002084815481106112c0576112bf61214f565b5b906000526020600020906005020160030160008282546112e091906121ad565b925050819055506000600660003373ffffffffffffffffffffffffffffffffffffffff1673ffffffffffffffffffffffffffffffffffffffff168152602001908152602001600020848154811061133a5761133961214f565b5b90600052602060002090600502016004018190555042600660003373ffffffffffffffffffffffffffffffffffffffff1673ffffffffffffffffffffffffffffffffffffffff16815260200190815260200160002084815481106113a1576113a061214f565b5b9060005260206000209060050201600101819055507ff71c4af2bcbd2784523507ce4c46a081ab9099f996b1cd3563df5073b0000b83600660003373ffffffffffffffffffffffffffffffffffffffff1673ffffffffffffffffffffffffffffffffffffffff16815260200190815260200160002084815481106114285761142761214f565b5b90600052602060002090600502016040516114439190612857565b60405180910390a1505050565b600160009054906101000a900473ffffffffffffffffffffffffffffffffffffffff1681565b8060018114806114865750600281145b6114c5576040517f08c379a00000000000000000000000000000000000000000000000000000000081526004016114bc9061212f565b60405180910390fd5b816005600082815260200190815260200160002060040154600660003373ffffffffffffffffffffffffffffffffffffffff1673ffffffffffffffffffffffffffffffffffffffff168152602001908152602001600020828154811061152e5761152d61214f565b5b90600052602060002090600502016002015461154a91906121ad565b421161158b576040517f08c379a000000000000000000000000000000000000000000000000000000000815260040161158290612275565b60405180910390fd5b60003073ffffffffffffffffffffffffffffffffffffffff1663e2f1fe54856040518263ffffffff1660e01b81526004016115c69190611ec7565b602060405180830381865afa1580156115e3573d6000803e3d6000fd5b505050506040513d601f19601f82011682018060405250810190611607919061236c565b905084811161164b576040517f08c379a0000000000000000000000000000000000000000000000000000000008152600401611642906128e4565b60405180910390fd5b6000600260009054906101000a900473ffffffffffffffffffffffffffffffffffffffff1673ffffffffffffffffffffffffffffffffffffffff1663a9059cbb33886040518363ffffffff1660e01b81526004016116aa929190612295565b6020604051808303816000875af11580156116c9573d6000803e3d6000fd5b505050506040513d601f19601f820116820180604052508101906116ed91906122f6565b905080156117d65785600660003373ffffffffffffffffffffffffffffffffffffffff1673ffffffffffffffffffffffffffffffffffffffff16815260200190815260200160002086815481106117475761174661214f565b5b906000526020600020906005020160040160008282546117679190612323565b9250508190555042600660003373ffffffffffffffffffffffffffffffffffffffff1673ffffffffffffffffffffffffffffffffffffffff16815260200190815260200160002086815481106117c0576117bf61214f565b5b9060005260206000209060050201600101819055505b7ff81e535c950855edcc77e9d85fb2350a26964536b52d203e11970af5a7b713a281600660003373ffffffffffffffffffffffffffffffffffffffff1673ffffffffffffffffffffffffffffffffffffffff16815260200190815260200160002087815481106118495761184861214f565b5b906000526020600020906005020160405161186592919061282e565b60405180910390a1505050505050565b60008054906101000a900473ffffffffffffffffffffffffffffffffffffffff1673ffffffffffffffffffffffffffffffffffffffff163373ffffffffffffffffffffffffffffffffffffffff1614611903576040517f08c379a00000000000000000000000000000000000000000000000000000000081526004016118fa9061246c565b60405180910390fd5b8060018114806119135750600281145b611952576040517f08c379a00000000000000000000000000000000000000000000000000000000081526004016119499061212f565b60405180910390fd5b8260056000848152602001908152602001600020600201819055507f709833cf22c1eba2035781c81a921f4379ee0b5f54a0f0c16adbace91611d040600560008481526020019081526020016000206040516119ae91906125a9565b60405180910390a1505050565b600660205281600052604060002081815481106119d757600080fd5b9060005260206000209060050201600091509150508060000154908060010154908060020154908060030154908060040154905085565b60008054906101000a900473ffffffffffffffffffffffffffffffffffffffff1673ffffffffffffffffffffffffffffffffffffffff163373ffffffffffffffffffffffffffffffffffffffff1614611a9c576040517f08c379a0000000000000000000000000000000000000000000000000000000008152600401611a939061246c565b60405180910390fd5b806001811480611aac5750600281145b611aeb576040517f08c379a0000000000000000000000000000000000000000000000000000000008152600401611ae29061212f565b60405180910390fd5b8260056000848152602001908152602001600020600101819055507f709833cf22c1eba2035781c81a921f4379ee0b5f54a0f0c16adbace91611d04060056000848152602001908152602001600020604051611b4791906125a9565b60405180910390a1505050565b60056020528060005260406000206000915090508060000154908060010154908060020154908060030154908060040154908060050154908060060154905087565b6000816001811480611ba85750600281145b611be7576040517f08c379a0000000000000000000000000000000000000000000000000000000008152600401611bde9061212f565b60405180910390fd5b6000600660003373ffffffffffffffffffffffffffffffffffffffff1673ffffffffffffffffffffffffffffffffffffffff1681526020019081526020016000208481548110611c3a57611c3961214f565b5b90600052602060002090600502016001015442611c579190612323565b90506000600660003373ffffffffffffffffffffffffffffffffffffffff1673ffffffffffffffffffffffffffffffffffffffff1681526020019081526020016000208581548110611cac57611cab61214f565b5b906000526020600020906005020160030154905060006003546064611cd19190612904565b60056000888152602001908152602001600020600101548385611cf49190612904565b611cfe9190612904565b611d08919061298d565b9050600081600660003373ffffffffffffffffffffffffffffffffffffffff1673ffffffffffffffffffffffffffffffffffffffff1681526020019081526020016000208881548110611d5e57611d5d61214f565b5b906000526020600020906005020160040154611d7a91906121ad565b90508095505050505050919050565b806001811480611d995750600281145b611dd8576040517f08c379a0000000000000000000000000000000000000000000000000000000008152600401611dcf9061212f565b60405180910390fd5b60045442611de691906121ad565b600660003373ffffffffffffffffffffffffffffffffffffffff1673ffffffffffffffffffffffffffffffffffffffff1681526020019081526020016000208381548110611e3757611e3661214f565b5b9060005260206000209060050201600201819055505050565b600080fd5b6000819050919050565b611e6881611e55565b8114611e7357600080fd5b50565b600081359050611e8581611e5f565b92915050565b600060208284031215611ea157611ea0611e50565b5b6000611eaf84828501611e76565b91505092915050565b611ec181611e55565b82525050565b6000602082019050611edc6000830184611eb8565b92915050565b60008060408385031215611ef957611ef8611e50565b5b6000611f0785828601611e76565b9250506020611f1885828601611e76565b9150509250929050565b600073ffffffffffffffffffffffffffffffffffffffff82169050919050565b6000611f4d82611f22565b9050919050565b611f5d81611f42565b82525050565b6000602082019050611f786000830184611f54565b92915050565b611f8781611f42565b8114611f9257600080fd5b50565b600081359050611fa481611f7e565b92915050565b60008060408385031215611fc157611fc0611e50565b5b6000611fcf85828601611f95565b9250506020611fe085828601611e76565b9150509250929050565b600060a082019050611fff6000830188611eb8565b61200c6020830187611eb8565b6120196040830186611eb8565b6120266060830185611eb8565b6120336080830184611eb8565b9695505050505050565b600060e082019050612052600083018a611eb8565b61205f6020830189611eb8565b61206c6040830188611eb8565b6120796060830187611eb8565b6120866080830186611eb8565b61209360a0830185611eb8565b6120a060c0830184611eb8565b98975050505050505050565b600082825260208201905092915050565b7f54686520706f6f6c2077697468207468697320706f6f6c496420646f6573206e60008201527f6f742065786973742e0000000000000000000000000000000000000000000000602082015250565b60006121196029836120ac565b9150612124826120bd565b604082019050919050565b600060208201905081810360008301526121488161210c565b9050919050565b7f4e487b7100000000000000000000000000000000000000000000000000000000600052603260045260246000fd5b7f4e487b7100000000000000000000000000000000000000000000000000000000600052601160045260246000fd5b60006121b882611e55565b91506121c383611e55565b9250827fffffffffffffffffffffffffffffffffffffffffffffffffffffffffffffffff038211156121f8576121f761217e565b5b828201905092915050565b7f436c61696d732063616e6e6f74206265206d61646520647572696e672074686560008201527f2074696d65206c6f636b20706572696f642e0000000000000000000000000000602082015250565b600061225f6032836120ac565b915061226a82612203565b604082019050919050565b6000602082019050818103600083015261228e81612252565b9050919050565b60006040820190506122aa6000830185611f54565b6122b76020830184611eb8565b9392505050565b60008115159050919050565b6122d3816122be565b81146122de57600080fd5b50565b6000815190506122f0816122ca565b92915050565b60006020828403121561230c5761230b611e50565b5b600061231a848285016122e1565b91505092915050565b600061232e82611e55565b915061233983611e55565b92508282101561234c5761234b61217e565b5b828203905092915050565b60008151905061236681611e5f565b92915050565b60006020828403121561238257612381611e50565b5b600061239084828501612357565b91505092915050565b60006123a482611e55565b9150600082036123b7576123b661217e565b5b600182039050919050565b6123cb816122be565b82525050565b60006040820190506123e660008301856123c2565b6123f360208301846123c2565b9392505050565b7f4d6573736167652073656e646572206d7573742062652074686520636f6e747260008201527f6163742773206f776e65722e0000000000000000000000000000000000000000602082015250565b6000612456602c836120ac565b9150612461826123fa565b604082019050919050565b6000602082019050818103600083015261248581612449565b9050919050565b60008160001c9050919050565b6000819050919050565b60006124b66124b18361248c565b612499565b9050919050565b6124c681611e55565b82525050565b60e0820160008083015490506124e1816124a3565b6124ee60008601826124bd565b50600183015490506124ff816124a3565b61250c60208601826124bd565b506002830154905061251d816124a3565b61252a60408601826124bd565b506003830154905061253b816124a3565b61254860608601826124bd565b5060048301549050612559816124a3565b61256660808601826124bd565b5060058301549050612577816124a3565b61258460a08601826124bd565b5060068301549050612595816124a3565b6125a260c08601826124bd565b5050505050565b600060e0820190506125be60008301846124cc565b92915050565b7f43616e2774207374616b696e67206c657373207468616e20746865206d696e6960008201527f6d756d20616d6f756e742e000000000000000000000000000000000000000000602082015250565b6000612620602b836120ac565b915061262b826125c4565b604082019050919050565b6000602082019050818103600083015261264f81612613565b9050919050565b7f43616e2774207374616b696e672077697468207468697320616d6f756e74206660008201527f726f6d2074686520746f74616c5374616b696e67416d6f756e742773206c696d60208201527f69742e0000000000000000000000000000000000000000000000000000000000604082015250565b60006126d86043836120ac565b91506126e382612656565b606082019050919050565b60006020820190508181036000830152612707816126cb565b9050919050565b60006060820190506127236000830186611f54565b6127306020830185611f54565b61273d6040830184611eb8565b949350505050565b600061275082611e55565b91507fffffffffffffffffffffffffffffffffffffffffffffffffffffffffffffffff82036127825761278161217e565b5b600182019050919050565b60a0820160008083015490506127a2816124a3565b6127af60008601826124bd565b50600183015490506127c0816124a3565b6127cd60208601826124bd565b50600283015490506127de816124a3565b6127eb60408601826124bd565b50600383015490506127fc816124a3565b61280960608601826124bd565b506004830154905061281a816124a3565b61282760808601826124bd565b5050505050565b600060c08201905061284360008301856123c2565b612850602083018461278d565b9392505050565b600060a08201905061286c600083018461278d565b92915050565b7f52657761726473206973206e6f7420656e6f75676820746f20636c61696d207460008201527f68697320616d6f756e742e000000000000000000000000000000000000000000602082015250565b60006128ce602b836120ac565b91506128d982612872565b604082019050919050565b600060208201905081810360008301526128fd816128c1565b9050919050565b600061290f82611e55565b915061291a83611e55565b9250817fffffffffffffffffffffffffffffffffffffffffffffffffffffffffffffffff04831182151516156129535761295261217e565b5b828202905092915050565b7f4e487b7100000000000000000000000000000000000000000000000000000000600052601260045260246000fd5b600061299882611e55565b91506129a383611e55565b9250826129b3576129b261295e565b5b82820490509291505056fea264697066735822122033a2951429fa49dfccca8660f5c150e46a22c3e347c62555f464d5957365f46c64736f6c634300080f0033",
  "immutableReferences": {},
  "source": "// SPDX-License-Identifier: MIT\npragma solidity >=0.4.22 <0.9.0;\n\nimport \"@openzeppelin/contracts/token/ERC20/ERC20.sol\";\n\ncontract StakingContract {\n  address owner; // Owner of this contract\n  address public stakingTokenAddress;\n\n  ERC20 stakingToken; // Staking token address is same with reward token address\n\n  struct Pool {\n    uint256 poolId; // PoolId\n    uint256 apr; // APR of Pool\n    uint256 minimumStakeAmount; // Minimumstake Amount Pool\n    uint256 maxSize; // MaxSize token capacity\n    uint256 timeLock; // Timelock to WithDraw of Pool\n    uint256 totalStakedAmount; // Total staked amount of Pool\n    uint256 totalStakers; // Total staker count of Pool\n  }\n\n  struct UserInformation {\n    uint256 poolId; // Poolid\n    uint256 lastClaimedRewards; // Last Claimed Rewards of Pool\n    uint256 timeDeposited; // getTimeDeposited of Pool\n    uint256 stakingBalances; // Staking token balances of Pool\n    uint256 rewardBalances; // Reward token balances of Pool\n  }\n\n  uint256 year = 31536000; // 365 days = 31536000s\n  uint256 week = 604800; // 1 week = 604800s\n\n  mapping(uint256 => Pool) public pools;\n\n  mapping(address => UserInformation[]) public userInformations;\n\n  // Check owner\n  modifier onlyOwner() {\n    require(msg.sender == owner, \"Message sender must be the contract's owner.\");\n    _;\n  }\n\n  // Check poolId validate\n  modifier validatePoolId(uint256 _poolId) {\n    require(_poolId == 1 || _poolId == 2, \"The pool with this poolId does not exist.\");\n    _;\n  }\n\n  // Check timelock\n  modifier checkTimelock(uint256 _poolId) {\n    require(\n      block.timestamp >\n        userInformations[msg.sender][_poolId].timeDeposited + pools[_poolId].timeLock,\n      \"Claims cannot be made during the time lock period.\"\n    );\n    _;\n  }\n\n  // ***************\n  // EVENTS\n  // ***************\n  event CheckUserInformation(UserInformation userInformation);\n  event UpdateUserInformation(bool success, UserInformation userInformation);\n  event ClaimStakedToken(bool success, bool successRewards);\n  event PoolInformation(Pool pool);\n\n  constructor(address _stakingTokenAddress) {\n    owner = msg.sender;\n    stakingToken = ERC20(_stakingTokenAddress);\n    stakingTokenAddress = _stakingTokenAddress;\n\n    pools[1] = Pool(\n      1, // PoolId\n      5, // APR of Pool1.\n      100, // Minimumstake Amount Pool1 = 100 token.\n      10000000, // Pool1 MaxSize token capacity: 10 Million.\n      604800, // Timelock to WithDraw of Pool1 = 1 Week = 604800s.\n      0, // Total staked amount of Pool\n      0 // Total staker count of Pool\n    );\n    pools[2] = Pool(\n      2, // PoolId\n      4, // APR of Pool2.\n      80, // Minimumstake Amount Pool2 = 80 token.\n      20000000, // Pool2 MaxSize token capacity: 20 Million.\n      259200, // Timelock to WithDraw of Pool2 = 1 Week = 259200s.\n      0, // Total staked amount of Pool\n      0 // Total staker count of Pool\n    );\n  }\n\n  // Staking ERC20 token\n  function stakeTokens(uint256 _amount, uint256 _poolId) external validatePoolId(_poolId) {\n    // Check minimumAmount\n    require(\n      _amount > pools[_poolId].minimumStakeAmount,\n      \"Can't staking less than the minimum amount.\"\n    );\n\n    // Check staking limit\n    require(\n      pools[_poolId].maxSize > pools[_poolId].totalStakedAmount + _amount,\n      \"Can't staking with this amount from the totalStakingAmount's limit.\"\n    );\n\n    bool success = stakingToken.transferFrom(msg.sender, address(this), _amount);\n\n    if (success) {\n      // Make sure this is a new staker.\n      if (\n        userInformations[msg.sender][_poolId].stakingBalances == 0 &&\n        userInformations[msg.sender][_poolId].rewardBalances == 0\n      ) {\n        pools[_poolId].totalStakers++; // Calculate the total staker count of Pool\n        userInformations[msg.sender][_poolId].poolId = _poolId; // Set the poolId\n        userInformations[msg.sender][_poolId].lastClaimedRewards = block.timestamp; // Set the init lastClaimedRewards\n      }\n\n      pools[_poolId].totalStakedAmount += _amount; // Calculate the total stake amount\n      userInformations[msg.sender][_poolId].stakingBalances += _amount; // Add staking amount of sender\n      userInformations[msg.sender][_poolId].timeDeposited = block.timestamp; // Update the time deposited of sender\n    }\n\n    emit UpdateUserInformation(success, userInformations[msg.sender][_poolId]);\n  }\n\n  // Claim Rewards\n  function claimRewards(uint256 _amount, uint256 _poolId)\n    external\n    validatePoolId(_poolId)\n    checkTimelock(_poolId)\n  {\n    uint256 rewards = this.rewardsCalculator(_poolId); // Calculate the added rewards\n    require(rewards > _amount, \"Rewards is not enough to claim this amount.\"); // Check if you can claim rewards\n\n    bool success = stakingToken.transfer(msg.sender, _amount);\n\n    if (success) {\n      userInformations[msg.sender][_poolId].rewardBalances -= _amount; // Update rewardBalances\n      userInformations[msg.sender][_poolId].lastClaimedRewards = block.timestamp; // Update lastClaimedRewards\n    }\n\n    emit UpdateUserInformation(success, userInformations[msg.sender][_poolId]);\n  }\n\n  // reStaking function is compound to restake his token if user not wants to claim token.\n  function stakeRewards(uint256 _poolId) external validatePoolId(_poolId) {\n    uint256 rewards = this.rewardsCalculator(_poolId); // Calculate the added rewards\n\n    // Update stakingBalances\n    userInformations[msg.sender][_poolId].rewardBalances += rewards;\n    userInformations[msg.sender][_poolId].stakingBalances += userInformations[msg.sender][_poolId]\n      .rewardBalances;\n\n    userInformations[msg.sender][_poolId].rewardBalances = 0; // Set rewardBalances to zero\n    userInformations[msg.sender][_poolId].lastClaimedRewards = block.timestamp; // Update lastClaimedRewards\n\n    emit CheckUserInformation(userInformations[msg.sender][_poolId]);\n  }\n\n  // This function should be if a user staked he unstake the token then it should not get the amount asap there should be the time.stamp + 1 Week and then claim tokensFromStake.\n  function unlockToWithdraw(uint256 _poolId) private validatePoolId(_poolId) {\n    userInformations[msg.sender][_poolId].timeDeposited = block.timestamp + week;\n  }\n\n  // Claim's also the Unclaimed if there is Unclaimed.(if else)\n  function claimStakedToken(uint256 _poolId)\n    external\n    validatePoolId(_poolId)\n    checkTimelock(_poolId)\n  {\n    // Call the unlockToWithdraw function\n    unlockToWithdraw(_poolId);\n\n    bool successStakes = stakingToken.transfer(\n      msg.sender,\n      userInformations[msg.sender][_poolId].stakingBalances\n    );\n\n    if (successStakes) {\n      pools[_poolId].totalStakedAmount -= userInformations[msg.sender][_poolId].stakingBalances; // Update the totalStakedAmount\n      userInformations[msg.sender][_poolId].stakingBalances = 0; // Set the staking balance to zero\n    }\n\n    uint256 rewards = this.rewardsCalculator(_poolId); // Calculate the added rewards\n    bool successRewards = stakingToken.transfer(msg.sender, rewards);\n\n    if (successRewards) {\n      userInformations[msg.sender][_poolId].rewardBalances = 0; // Set the reward balance to zero\n      userInformations[msg.sender][_poolId].lastClaimedRewards = block.timestamp; // Update lastClaimedRewards\n    }\n\n    if (successRewards && successStakes) {\n      pools[_poolId].totalStakers--; // Calculate the total staker count of Pool\n    }\n\n    emit ClaimStakedToken(successStakes, successRewards);\n  }\n\n  // Get Current Reward By Staker index\n  function rewardsCalculator(uint256 _poolId)\n    external\n    view\n    validatePoolId(_poolId)\n    returns (uint256)\n  {\n    uint256 rewardTime = block.timestamp - userInformations[msg.sender][_poolId].lastClaimedRewards;\n    uint256 stakingBalances = userInformations[msg.sender][_poolId].stakingBalances;\n    uint256 rewards = (rewardTime * stakingBalances * pools[_poolId].apr) / (100 * year);\n    uint256 currentRewards = userInformations[msg.sender][_poolId].rewardBalances + rewards;\n\n    return currentRewards;\n  }\n\n  // This should be the amount of calculated reward a user don't have claimed.\n  function unclaimedAmount(uint256 _poolId)\n    external\n    view\n    validatePoolId(_poolId)\n    returns (uint256)\n  {\n    return userInformations[msg.sender][_poolId].stakingBalances;\n  }\n\n  // Set the APR\n  function setAPR(uint256 _apr, uint256 _poolId) external onlyOwner validatePoolId(_poolId) {\n    pools[_poolId].apr = _apr;\n\n    emit PoolInformation(pools[_poolId]);\n  }\n\n  // Set the minimumStakeAmount\n  function setMinimumStakeAmount(uint256 _minimumStakeAmount, uint256 _poolId)\n    external\n    onlyOwner\n    validatePoolId(_poolId)\n  {\n    pools[_poolId].minimumStakeAmount = _minimumStakeAmount;\n\n    emit PoolInformation(pools[_poolId]);\n  }\n\n  // Set the maxSize\n  function setMaxSize(uint256 _maxSize, uint256 _poolId)\n    external\n    onlyOwner\n    validatePoolId(_poolId)\n  {\n    pools[_poolId].maxSize = _maxSize;\n\n    emit PoolInformation(pools[_poolId]);\n  }\n\n  // Set the timeLock\n  function setTimeLock(uint256 _timeLock, uint256 _poolId)\n    external\n    onlyOwner\n    validatePoolId(_poolId)\n  {\n    pools[_poolId].timeLock = _timeLock;\n\n    emit PoolInformation(pools[_poolId]);\n  }\n}\n",
  "sourcePath": "/home/phoenix/Works/staking-contract/contracts/StakingContract.sol",
  "compiler": {
    "name": "solc",
    "version": "0.8.15+commit.e14f2714.Emscripten.clang"
  },
  "schemaVersion": "3.4.8",
  "updatedAt": "2023-01-10T20:28:42.264Z",
  "networkType": "ethereum",
  "devdoc": {
    "kind": "dev",
    "methods": {},
    "version": 1
  },
  "userdoc": {
    "kind": "user",
    "methods": {},
    "version": 1
  }
}